:100000000C9458000C9480000C9480000C94800098
:100010000C9480000C9480000C9480000C94800060
:100020000C9480000C9480000C9480000C94800050
:100030000C9480000C9480000C9480000C94800040
:100040000C943A040C9480000C9408040C94E20381
:100050000C9480000C9480000C9480000C94800020
:100060000C9484040C9480000000000025002800FB
:100070002B00040404040404040402020202020229
:10008000030303030303010204081020408001025C
:1000900004081020010204081020000000080002DB
:1000A0000100000304070000000000000000B2058A
:1000B00011241FBECFEFD8E0DEBFCDBF11E0A0E01E
:1000C000B1E0E2E5F4E102C005900D92AC37B10772
:1000D000D9F722E0ACE7B1E001C01D92A33CB20722
:1000E000E1F710E0C8E5D0E004C02197FE010E94CE
:1000F0001C0AC735D107C9F70E94EB050C94270AE3
:100100000C94000090E0FC01E656FF4F2491FC01A6
:10011000EA57FF4F3491FC01EE58FF4FE491EE2374
:10012000B1F1222339F1233091F038F42130A9F0D4
:10013000223001F584B58F7D12C0273091F0283030
:10014000A1F02430B9F4809180008F7D03C08091AC
:1001500080008F77809380000DC084B58F7784BD39
:1001600009C08091B0008F7703C08091B0008F7D6F
:100170008093B000F0E0EE0FFF1FE859FF4FA5910C
:10018000B4918FB7F894EC913E2B3C938FBF0895B8
:10019000E0911902F0911A020190F081E02D682F90
:1001A00089E192E00994CF92DF92EF92FF920F9350
:1001B0001F93CF93DF936C017A018B01C0E0D0E0F5
:1001C000CE15DF0589F0D8016D918D01D601ED9135
:1001D000FC910190F081E02DC6010995892B11F465
:1001E0007E0102C02196ECCFC701DF91CF911F9114
:1001F0000F91FF90EF90DF90CF900895FC01538D09
:10020000448D252F30E0842F90E0821B930B5417F0
:1002100010F0CF96089501970895FC01918D828D7D
:10022000981761F0828DDF01A80FB11D5D968C914A
:10023000928D9F5F9F73928F90E008958FEF9FEF55
:100240000895FC01918D828D981731F0828DE80F11
:10025000F11D858D90E008958FEF9FEF0895FC01CB
:10026000918D228D892F90E0805C9F4F821B910998
:100270008F739927089589E192E00E942F0121E070
:10028000892B09F420E0822F0895FC01848DDF0181
:10029000A80FB11DA35ABF4F2C91848D90E00196F9
:1002A0008F739927848FA689B7892C93A089B189E8
:1002B0008C9180648C93938D848D981306C00288F2
:1002C000F389E02D80818F7D80830895EF92FF92E6
:1002D0000F931F93CF93DF93EC0181E0888F9B8D69
:1002E0008C8D981305C0E889F989808185FD24C02B
:1002F000F62E0B8D10E00F5F1F4F0F731127E02EAE
:100300008C8DE8120CC00FB607FCFACFE889F9898A
:10031000808185FFF5CFCE010E944501F1CF8B8D05
:10032000FE01E80FF11DE35AFF4FF0820B8FEA89BF
:10033000FB898081806207C0EE89FF896083E8893C
:10034000F98980818064808381E090E0DF91CF91A2
:100350001F910F91FF90EF900895CF93DF93EC01E1
:10036000888D8823C9F0EA89FB89808185FD05C0D5
:10037000A889B9898C9186FD0FC00FB607FCF5CF0F
:10038000808185FFF2CFA889B9898C9185FFEDCF57
:10039000CE010E944501E7CFDF91CF91089580E023
:1003A00090E0892B29F00E943B0181110C94000000
:1003B00008953FB7F8948091C8019091C901A09128
:1003C000CA01B091CB0126B5A89B05C02F3F19F0FB
:1003D0000196A11DB11D3FBFBA2FA92F982F8827C5
:1003E000820F911DA11DB11DBC01CD0142E0660F20
:1003F000771F881F991F4A95D1F7089585ED80933F
:10040000BC008091BC0084FDFCCF1092F4010895E3
:1004100040919E01262F30E0240F311D21323105FD
:10042000DCF42091F4012430C9F4FC0180E090E078
:10043000861758F430919E012191DC01A458BE4FDB
:10044000A30FB11D2C930196F3CF80919E01680FED
:1004500060939E0180E0089581E0089582E0089510
:10046000089581E090E03091CD012091CC013217C8
:1004700010F480E090E09195819591090895809124
:10048000CD019091CC01891730F48F5F8093CD011D
:1004900080E090E008958FEF9FEF08958091CC0168
:1004A00090E02091CD01821B91090895CF92DF92B7
:1004B000EF92FF920F931F93CF93DF937C01262F30
:1004C000972F8A0180911802882391F0C62FD72F89
:1004D0006E01C40ED51ECC15DD0571F06991D701F2
:1004E000ED91FC910190F081E02DC7010995F3CFCA
:1004F000642F822F0E940802C801DF91CF911F91C3
:100500000F91FF90EF90DF90CF900895CF93DF93FE
:100510001F92CDB7DEB76983209118022223D1F054
:1005200020911502203240F021E030E0FC013383BD
:10053000228380E090E015C080911602E82FF0E061
:10054000EB50FE4F998190838F5F809316028093CA
:10055000150205C061E0CE0101960E94080281E00B
:1005600090E00F90DF91CF910895089580E090E0A2
:100570000895009769F0FC0101900020E9F7319798
:10058000AF01481B590BBC0189E192E00C94D300E8
:1005900080E090E008958F929F92AF92BF920F9368
:1005A0001F93CF93DF93CDB7DEB7A1970FB6F89423
:1005B000DEBF0FBECDBF19A2423008F44AE08E0163
:1005C0000F5D1F4F842E912CA12CB12CA5019401FD
:1005D0000E94FA09E62FB901CA0101501109EA3057
:1005E00014F4E05D01C0E95CD801EC93232B242BCB
:1005F000252B61F7C8010E94B902A1960FB6F894A5
:10060000DEBF0FBECDBFDF91CF911F910F91BF9085
:10061000AF909F908F9008954F925F926F927F92CC
:100620008F929F92AF92BF92CF92DF92EF92FF9202
:100630006B017C01B42E9B01AC010E94F50988235B
:1006400019F084E291E027C026013701E89477F899
:100650002FEF3FEF4FE75FE7C301B2010E94F509BB
:1006600081110DC02FEF3FEF4FE75FE7C301B201EC
:100670000E942B0818161CF488E291E00CC02FEFA2
:100680003FEF4FE75FE4C701B6010E9483091816E8
:1006900084F48CE291E0FF90EF90DF90CF90BF90D8
:1006A000AF909F908F907F906F905F904F900C9441
:1006B000B9022FEF3FEF4FE75FECC701B6010E9491
:1006C0002B0887FDE6CF20E030E0A901C701B60185
:1006D0000E942B0887FF09C08DE20E94C8004C01D0
:1006E000F7FAF094F7F8F09402C0812C912CA12C29
:1006F00060E070E080E09FE3AB1441F020E030E088
:1007000040E251E40E943008A394F6CF9B01AC0173
:10071000C701B6010E94BF072B013C010E94A2083D
:100720006B017C010E94D1089B01AC01C301B201A5
:100730000E94BE072B013C014AE0C701B6010E949E
:10074000CB027C01E80CF91CBB2029F08EE20E9450
:10075000C800E80EF91EDB2CDD2021F120E030E09E
:1007600040E251E4C301B2010E9488092B013C011F
:100770000E94A2084B01A12CB12C4AE0C501B40192
:100780000E94CB02E80EF91EC501B4010E94D108F7
:100790009B01AC01C301B2010E94BE072B013C01C9
:1007A000DA94DACFC701FF90EF90DF90CF90BF903F
:1007B000AF909F908F907F906F905F904F90089533
:1007C0000E94220A1F920F920FB60F9211242F93AC
:1007D0003F934F935F936F937F938F939F93AF93C9
:1007E000BF93EF93FF9389E192E00E944501FF914F
:1007F000EF91BF91AF919F918F917F916F915F9199
:100800004F913F912F910F900FBE0F901F90189511
:100810001F920F920FB60F9211242F938F939F93D5
:10082000EF93FF93E0912902F0912A028081E091F9
:100830002F02F091300282FD12C09081809132022D
:100840008F5F8F7320913302821751F0E091320253
:10085000F0E0E75EFD4F958F8093320201C080810A
:10086000FF91EF919F918F912F910F900FBE0F905D
:100870001F9018951F920F920FB60F9211242F936D
:100880003F938F939F93AF93BF938091C4019091B7
:10089000C501A091C601B091C7013091C30123E009
:1008A000230F2D3720F40196A11DB11D05C026E8A8
:1008B000230F0296A11DB11D2093C3018093C40193
:1008C0009093C501A093C601B093C7018091C80160
:1008D0009091C901A091CA01B091CB010196A11DCF
:1008E000B11D8093C8019093C901A093CA01B09330
:1008F000CB01BF91AF919F918F913F912F910F901D
:100900000FBE0F901F9018951F920F920FB60F9267
:1009100011242F933F934F935F936F937F938F9304
:100920009F93AF93BF93EF93FF938091B900887F1C
:10093000803609F49CC068F5883209F45BC090F4F5
:10094000803109F454C038F4882309F4F6C08830A3
:1009500009F44DC0F6C0883109F44CC0803209F466
:100960005DC0EFC0803409F468C048F4803309F4F6
:1009700055C0883309F0E5C08093F201D8C08035B6
:1009800009F44FC0883509F45DC0883409F0D9C036
:10099000D6C0883909F4C7C0A8F4883709F467C0FD
:1009A00038F4883609F463C0803709F460C0C9C0E0
:1009B000883809F4B8C0803909F45FC0803809F07C
:1009C000C0C05BC0803B09F486C038F4803A09F4AB
:1009D00066C0883A09F47FC0B4C0803C09F4A7C05F
:1009E000883C09F4A4C0883B09F48AC0AAC080915D
:1009F000CF0110C09091F1018091F001981770F52E
:100A0000E091F10181E08E0F8093F101F0E0E0537D
:100A1000FE4F80818093BB0085EC86C08093F201FD
:100A20008EC0E091F10181E08E0F8093F101809101
:100A3000BB00F0E0E053FE4F80839091F101809184
:100A4000F0016EC0E091F10181E08E0F8093F10121
:100A50008091BB00F0E0E053FE4F80838091F30172
:100A600081116DC081E08093CE0184EA61C083E092
:100A70008093F4011092C201CFCF8091C2018032E5
:100A800008F051C0E091C20181E08E0F8093C20155
:100A90008091BB00F0E0EE55FE4F8083BDCF85EC2A
:100AA0008093BC001092F4018091C201803230F436
:100AB000E091C201F0E0EE55FE4F10826091C2015C
:100AC00070E0E091A001F091A10182EA91E0099526
:100AD0001092C20136C084E08093F40110929F010D
:100AE00010929E01E0919C01F0919D0109958091E9
:100AF0009E01811105C081E080939E0110927C01CE
:100B0000E0919F0181E08E0F80939F01F0E0E45817
:100B1000FE4F80818093BB0090919F0180919E0148
:100B2000981708F479CF85E88093BC000AC085EC5B
:100B30008093BC001092F40104C01092F2010E9454
:100B4000FE01FF91EF91BF91AF919F918F917F91A6
:100B50006F915F914F913F912F910F900FBE0F902A
:100B60001F901895E9E1F2E01382128288EE93E07B
:100B7000A0E0B0E084839583A683B78324E031E0CE
:100B80003183208325EC30E03587248724EC30E066
:100B90003787268720EC30E0318B208B21EC30E04A
:100BA000338B228B22EC30E0358B248B26EC30E02B
:100BB000378B268B118E128E138E148EE6EBF2E09D
:100BC0001382128284839583A683B78386E191E0A2
:100BD000918380830895CF93DF93CDB7DEB72897B5
:100BE0000FB6F894DEBF0FBECDBF789484B5826097
:100BF00084BD84B5816084BD85B5826085BD85B5C1
:100C0000816085BD80916E00816080936E0010923E
:100C100081008091810082608093810080918100B9
:100C2000816080938100809180008160809380004A
:100C30008091B10084608093B1008091B0008160A8
:100C40008093B00080917A00846080937A008091D4
:100C50007A00826080937A0080917A00816080932C
:100C60007A0080917A00806880937A001092C100A7
:100C7000E0912902F0912A0282E08083E09125022E
:100C8000F09126021082E0912702F09128028FEC69
:100C9000808310923102E0912D02F0912E0286E0C5
:100CA0008083E0912B02F0912C028081806180830F
:100CB000E0912B02F0912C02808188608083E0918A
:100CC0002B02F0912C02808180688083E0912B02BE
:100CD000F0912C0280818F7D808380E68093C20218
:100CE0001092CD011092CC011092160210921502B2
:100CF0001092F40181E08093F3011092CE0182E121
:100D00000E94820083E10E9482008091B9008E7F60
:100D10008093B9008091B9008D7F8093B90088E4F9
:100D20008093B80085E48093BC0022242A94C12CCF
:100D3000D12C760135EE332EC701B6010E94D108C1
:100D400020E030E040EA5AE30E94880969837A8310
:100D50008B839C830091B8002CE02093B800109105
:100D6000C20231E03093180210931702109216025B
:100D70001092150260E486EB92E00E948602B601B2
:100D800094E0769567959A95E1F786EB92E00E945C
:100D90008602B60124E0660F771F2A95E1F786EBFD
:100DA00092E00E94860280911502813208F047C0CD
:100DB0009091F4019111FCCF92E09093F401E1E065
:100DC000E093F3012092F2011092F1018093F0017F
:100DD000A5EFB1E0E0EDF1E09E2F20ED31E0921BB8
:100DE000981718F49D919193F7CF1092CF018091AD
:100DF000CF01110F182B1093CF018091CE018130BC
:100E000071F41092CE018091CF018093BB0080914C
:100E1000BC0083FDF8CF35EC3093BC0002C03092AB
:100E2000BC008091F4018230E1F38091F2018F3FA8
:100E300031F08091F201803211F08091F201109234
:100E4000160210921502109218020093B8000E9428
:100E5000D9012B013C018AEF882E912CA12CB12CB9
:100E60000E94D901DC01CB0184199509A609B709B3
:100E7000883E9340A105B10558F081E0881A910899
:100E8000A108B10898EE490E93E0591E611C711C2F
:100E900081149104A104B10419F780E480937C00CB
:100EA00080917A00806480937A0080917A0086FD38
:100EB000FCCF009178008091790010E0182B480158
:100EC000012E000CAA08BB08C501B4010E94D3087A
:100ED00020E030E040EA50E40E94880920E030E061
:100EE00040E85AE30E9488092B013C0180E391E02D
:100EF0000E94B9024AE0C701B6010E94CB028CE30E
:100F000091E00E94B90243E069817A818B819C81E2
:100F10000E940C0380E591E00E94B90217FF0CC00B
:100F20008DE20E94C80066277727CB0168197909EE
:100F30008A099B094AE003C04AE0C501B4010E9446
:100F4000CB0285E691E00E94B90243E0C301B20101
:100F50000E940C0388E791E00E94B902FFE0CF0EE7
:100F6000D11CE11CF11C2EE0C21620E1D206E104E6
:100F7000F10409F0E1CE0E94CF01D9CE5058BB2731
:100F8000AA270E94D6070C9449090E943B0938F011
:100F90000E94420920F039F49F3F19F426F40C9482
:100FA00038090EF4E095E7FB0C943209E92F0E9412
:100FB0005A0958F3BA17620773078407950720F098
:100FC00079F4A6F50C947C090EF4E0950B2EBA2F5B
:100FD000A02D0B01B90190010C01CA01A00111243F
:100FE000FF27591B99F0593F50F4503E68F11A16EB
:100FF000F040A22F232F342F4427585FF3CF46957C
:1010000037952795A795F0405395C9F77EF41F169D
:10101000BA0B620B730B840BBAF09150A1F0FF0F67
:10102000BB1F661F771F881FC2F70EC0BA0F621F53
:10103000731F841F48F4879577956795B795F79543
:101040009E3F08F0B0CF9395880F08F09927EE0FD8
:101050009795879508950E940E0908F481E00895F8
:101060000E9444080C9449090E94420958F00E94C9
:101070003B0940F029F45F3F29F00C9432095111EB
:101080000C947D090C9438090E945A0968F399233D
:10109000B1F3552391F3951B550BBB27AA27621774
:1010A0007307840738F09F5F5F4F220F331F441F81
:1010B000AA1FA9F335D00E2E3AF0E0E832D09150B5
:1010C0005040E695001CCAF72BD0FE2F29D0660FA2
:1010D000771F881FBB1F261737074807AB07B0E8E5
:1010E00009F0BB0B802DBF01FF2793585F4F3AF0EB
:1010F0009E3F510578F00C9432090C947D095F3FB6
:10110000E4F3983ED4F3869577956795B795F79570
:101110009F5FC9F7880F911D9695879597F9089558
:10112000E1E0660F771F881FBB1F621773078407F4
:10113000BA0720F0621B730B840BBA0BEE1F88F703
:10114000E09508950E94620988F09F5798F0B92FA2
:101150009927B751B0F0E1F0660F771F881F991FEC
:101160001AF0BA95C9F714C0B13091F00E947C0909
:10117000B1E008950C947C09672F782F8827B85F19
:1011800039F0B93FCCF3869577956795B395D9F744
:101190003EF490958095709561957F4F8F4F9F4F4E
:1011A0000895E89409C097FB3EF49095809570955A
:1011B00061957F4F8F4F9F4F9923A9F0F92F96E9A3
:1011C000BB279395F695879577956795B795F11118
:1011D000F8CFFAF4BB0F11F460FF1BC06F5F7F4FB5
:1011E0008F4F9F4F16C0882311F096E911C07723C7
:1011F00021F09EE8872F762F05C0662371F096E8D0
:10120000862F70E060E02AF09A95660F771F881F9E
:10121000DAF7880F9695879597F90895990F000842
:10122000550FAA0BE0E8FEEF16161706E807F907B8
:10123000C0F012161306E407F50798F0621B730B53
:10124000840B950B39F40A2661F0232B242B252BD4
:1012500021F408950A2609F4A140A6958FEF811D77
:10126000811D089597F99F6780E870E060E0089518
:101270009FEF80EC089500240A94161617061806AE
:101280000906089500240A9412161306140605068A
:101290000895092E0394000C11F4882352F0BB0F1B
:1012A00040F4BF2B11F460FF04C06F5F7F4F8F4F7E
:1012B0009F4F089557FD9058440F551F59F05F3FB9
:1012C00071F04795880F97FB991F61F09F3F79F068
:1012D00087950895121613061406551FF2CF4695EA
:1012E000F1DF08C0161617061806991FF1CF86956C
:1012F0007105610508940895E894BB276627772750
:10130000CB0197F908950E940E0908F48FEF089514
:101310000E949B090C9449090E943B0938F00E94E5
:10132000420920F0952311F00C9432090C943809ED
:1013300011240C947D090E945A0970F3959FC1F302
:10134000950F50E0551F629FF001729FBB27F00D73
:10135000B11D639FAA27F00DB11DAA1F649F6627C8
:10136000B00DA11D661F829F2227B00DA11D621F17
:10137000739FB00DA11D621F839FA00D611D221FD1
:10138000749F3327A00D611D231F849F600D211DB5
:10139000822F762F6A2F11249F5750409AF0F1F038
:1013A00088234AF0EE0FFF1FBB1F661F771F881FA1
:1013B00091505040A9F79E3F510580F00C9432099E
:1013C0000C947D095F3FE4F3983ED4F386957795BE
:1013D0006795B795F795E7959F5FC1F7FE2B880F47
:1013E000911D9695879597F908950E940E09880B8F
:1013F000990B0895A1E21A2EAA1BBB1BFD010DC07B
:10140000AA1FBB1FEE1FFF1FA217B307E407F507B4
:1014100020F0A21BB30BE40BF50B661F771F881F90
:10142000991F1A9469F760957095809590959B0126
:10143000AC01BD01CF010895EE0FFF1F0590F4919F
:10144000E02D099481E090E0F8940C94270AF89438
:02145000FFCFCC
:10145200000000006601D300FE00AD012F010D0166
:1014620021010000000086025602B60230024E023E
:101472003F0231026E616E00696E66006F76660031
:101482004441432056616C75653A200009457870E5
:10149200656374656420566F6C746167653A2000F9
:1014A2000941726475696E6F204144432056616C34
:1014B20075653A20000941726475696E6F20566F36
:0C14C2006C746167653A20000D0A0000A0
:00000001FF
