:100000000C945D000C9485000C9485000C94850084
:100010000C9485000C9485000C9485000C9485004C
:100020000C9485000C9485000C9485000C9485003C
:100030000C9485000C9485000C9485000C9485002C
:100040000C94CC040C9485000C943C050C9416057F
:100050000C9485000C9485000C9485000C9485000C
:100060000C946E050C94850000000000230026000F
:10007000290000000000250028002B0004040404CF
:100080000404040402020202020203030303030342
:10009000010204081020408001020408102001021F
:1000A00004081020000000080002010000030407FB
:1000B00000000000000000009C0611241FBECFEFCE
:1000C000D8E0DEBFCDBF11E0A0E0B1E0EAE7F6E1A5
:1000D00002C005900D92A63AB107D9F722E0A6EA30
:1000E000B1E001C01D92AD3EB207E1F710E0CDE5F1
:1000F000D0E004C02197FE010E94300BCC35D1071F
:10010000C9F70E94D5060C943B0B0C940000E091BB
:100110004302F09144020190F081E02D682F83E4C6
:1001200092E0099480E480937C0080917A0080645E
:1001300080937A0080917A0086FDFCCF80917800D0
:100140002091790090E0922B0895CF92DF92EF9268
:10015000FF920F931F93CF93DF936C017A018B0172
:10016000C0E0D0E0CE15DF0589F0D8016D918D019A
:10017000D601ED91FC910190F081E02DC601099529
:10018000892B11F47E0102C02196ECCFC701DF91CB
:10019000CF911F910F91FF90EF90DF90CF90089536
:1001A000FC01538D448D252F30E0842F90E0821B7D
:1001B000930B541710F0CF96089501970895FC0102
:1001C000918D828D981761F0828DDF01A80FB11D8E
:1001D0005D968C91928D9F5F9F73928F90E00895B2
:1001E0008FEF9FEF0895FC01918D828D981731F06C
:1001F000828DE80FF11D858D90E008958FEF9FEFC0
:100200000895FC01918D228D892F90E0805C9F4F95
:10021000821B91098F739927089583E492E00E94CD
:10022000010121E0892B09F420E0822F0895FC01CF
:10023000848DDF01A80FB11DA35ABF4F2C91848D6F
:1002400090E001968F739927848FA689B7892C93A4
:10025000A089B1898C9180648C93938D848D98133F
:1002600006C00288F389E02D80818F7D8083089508
:10027000EF92FF920F931F93CF93DF93EC0181E0F6
:10028000888F9B8D8C8D981305C0E889F9898081B2
:1002900085FD24C0F62E0B8D10E00F5F1F4F0F73EE
:1002A0001127E02E8C8DE8120CC00FB607FCFACF98
:1002B000E889F989808185FFF5CFCE010E94170179
:1002C000F1CF8B8DFE01E80FF11DE35AFF4FF08255
:1002D0000B8FEA89FB898081806207C0EE89FF89E4
:1002E0006083E889F98980818064808381E090E07F
:1002F000DF91CF911F910F91FF90EF900895CF93D1
:10030000DF93EC01888D8823C9F0EA89FB8980811D
:1003100085FD05C0A889B9898C9186FD0FC00FB6EF
:1003200007FCF5CF808185FFF2CFA889B9898C9130
:1003300085FFEDCFCE010E941701E7CFDF91CF916E
:10034000089580E090E0892B29F00E940D01811131
:100350000C9400000895833081F028F4813099F0E6
:100360008230A1F008958730A9F08830B9F0843048
:10037000D1F4809180008F7D03C0809180008F77C1
:1003800080938000089584B58F7702C084B58F7DF7
:1003900084BD08958091B0008F7703C08091B00034
:1003A0008F7D8093B0000895CF93DF93282F30E0A6
:1003B000F901EC55FF4F8491F901E057FF4FD491BB
:1003C000F901E458FF4FC491CC2389F081110E94B8
:1003D000AB01EC2FF0E0EE0FFF1FEE58FF4FA591A1
:1003E000B4918FB7F894EC91ED2BEC938FBFDF9124
:1003F000CF910895CF93DF93282F30E0F901EC558A
:10040000FF4F8491F901E057FF4FD491F901E4586F
:10041000FF4FC491CC2391F081110E94AB01EC2FCE
:10042000F0E0EE0FFF1FE859FF4FA591B491EC915A
:10043000ED2381E090E021F480E002C080E090E0D4
:10044000DF91CF91089585ED8093BC008091BC0031
:1004500084FDFCCF10921E0208954091C801262F02
:1004600030E0240F311D21323105DCF420911E02D1
:100470002430C9F4FC0180E090E0861758F43091F4
:10048000C8012191DC01AA55BE4FA30FB11D2C93C9
:100490000196F3CF8091C801680F6093C80180E096
:1004A000089581E0089582E00895089581E090E044
:1004B0003091EE012091ED01321710F480E090E0D0
:1004C00091958195910908958091EE019091ED01AA
:1004D000891730F48F5F8093EE0180E090E00895FB
:1004E0008FEF9FEF08958091ED0190E02091EE0154
:1004F000821B91090895CF92DF92EF92FF920F93A2
:100500001F93CF93DF937C01262F972F8A01809131
:100510004202882391F0C62FD72F6E01C40ED51E3C
:10052000CC15DD0571F06991D701ED91FC91019039
:10053000F081E02DC7010995F3CF642F822F0E942F
:100540002D02C801DF91CF911F910F91FF90EF9085
:10055000DF90CF900895CF93DF931F92CDB7DEB792
:100560006983209142022223D1F020913F02203260
:1005700040F021E030E0FC013383228380E090E012
:1005800015C080914002E82FF0E0E15EFD4F9981B7
:1005900090838F5F8093400280933F0205C061E0AB
:1005A000CE0101960E942D0281E090E00F90DF9134
:1005B000CF910895089580E090E00895009769F044
:1005C000FC0101900020E9F73197AF01481B590B5E
:1005D000BC0183E492E00C94A50080E090E00895D3
:1005E0008F929F92AF92BF920F931F93CF93DF93FF
:1005F000CDB7DEB7A1970FB6F894DEBF0FBECDBF63
:1006000019A2423008F44AE08E010F5D1F4F842E7C
:10061000912CA12CB12CA50194010E940E0BE62F68
:10062000B901CA0101501109EA3014F4E05D01C0BA
:10063000E95CD801EC93232B242B252B61F7C8010F
:100640000E94DE02A1960FB6F894DEBF0FBECDBFAA
:10065000DF91CF911F910F91BF90AF909F908F909E
:1006600008950C94DE024F925F926F927F928F9268
:100670009F92AF92BF92CF92DF92EF92FF926B0167
:100680007C01B42E9B01AC010E94090B882319F058
:1006900084E291E027C026013701E89477F82FEF34
:1006A0003FEF4FE75FE7C301B2010E94090B8111E1
:1006B0000DC02FEF3FEF4FE75FE7C301B2010E948C
:1006C0003F0918161CF488E291E00CC02FEF3FEFB1
:1006D0004FE75FE4C701B6010E94970A181684F439
:1006E0008CE291E0FF90EF90DF90CF90BF90AF90C1
:1006F0009F908F907F906F905F904F900C94DE0250
:100700002FEF3FEF4FE75FECC701B6010E943F09B3
:1007100087FDE6CF20E030E0A901C701B6010E94C5
:100720003F0987FF09C08DE20E9487004C01F7FA5C
:10073000F094F7F8F09402C0812C912CA12C60E089
:1007400070E080E09FE3AB1441F020E030E040E255
:1007500051E40E944409A394F6CF9B01AC01C70168
:10076000B6010E94D3082B013C010E94B6096B011F
:100770007C010E94E5099B01AC01C301B2010E940A
:10078000D2082B013C014AE0C701B6010E94F002E9
:100790007C01E80CF91CBB2029F08EE20E94870046
:1007A000E80EF91EDB2CDD2021F120E030E040E2F4
:1007B00051E4C301B2010E949C0A2B013C010E943A
:1007C000B6094B01A12CB12C4AE0C501B4010E942D
:1007D000F002E80EF91EC501B4010E94E5099B0173
:1007E000AC01C301B2010E94D2082B013C01DA9492
:1007F000DACFC701FF90EF90DF90CF90BF90AF901E
:100800009F908F907F906F905F904F900895CF93BF
:10081000DF9342E00E943303EC0180E391E00E9409
:10082000DE028C0F9D1FDF91CF910895CF92DF9252
:10083000EF92FF92CF93DF936C01990FEE08FF08C0
:10084000F7FE17C08DE20E948700EC01662777272C
:10085000CB016C197D098E099F094AE00E94F002C4
:100860008C0F9D1FDF91CF91FF90EF90DF90CF9085
:1008700008954AE0C701B601DF91CF91FF90EF9054
:10088000DF90CF900C94F0020F931F93CF93DF93E0
:100890008C01D091B8008CE08093B800C091EC023C
:1008A00081E080934202C093410210924002109274
:1008B0003F0260E480EE92E00E94AB02B80184E067
:1008C000769567958A95E1F780EE92E00E94AB02FB
:1008D000B80194E0660F771F9A95E1F780EE92E0F9
:1008E0000E94AB0280913F02813208F046C0909195
:1008F0001E029111FCCF92E090931E0291E0909322
:100900001D029FEF90931C0210921B0280931A020B
:10091000AFE1B2E02AEF31E0F9019E2F921B981768
:1009200018F49D919193F9CF1092F9018091F901FA
:10093000CC0FC82BC093F9018091F801813061F48C
:100940001092F8018091F9018093BB008091BC0066
:1009500083FDF8CF85EC01C085EE8093BC008091CB
:100960001E028230E1F380911C028F3F31F08091B2
:100970001C02803211F080911C02109240021092F1
:100980003F0210924202D093B800DF91CF911F91A5
:100990000F9108950E94360B1F920F920FB60F927F
:1009A00011242F933F938F939F93AF93BF93809185
:1009B000F4019091F501A091F601B091F701309109
:1009C000F30123E0230F2D3720F40196A11DB11D63
:1009D00005C026E8230F0296A11DB11D2093F30147
:1009E0008093F4019093F501A093F601B093F70181
:1009F0008091EF019091F001A091F101B091F2018D
:100A00000196A11DB11D8093EF019093F001A09379
:100A1000F101B093F201BF91AF919F918F913F91FE
:100A20002F910F900FBE0F901F9018951F920F924D
:100A30000FB60F9211242F933F934F935F936F93B1
:100A40007F938F939F93AF93BF93EF93FF9383E431
:100A500092E00E941701FF91EF91BF91AF919F919A
:100A60008F917F916F915F914F913F912F910F9057
:100A70000FBE0F901F9018951F920F920FB60F92F6
:100A800011242F938F939F93EF93FF93E091530241
:100A9000F09154028081E0915902F0915A0282FD56
:100AA00012C0908180915C028F5F8F7320915D02F4
:100AB000821751F0E0915C02F0E0ED5BFD4F958F05
:100AC00080935C0201C08081FF91EF919F918F9193
:100AD0002F910F900FBE0F901F9018951F920F929D
:100AE0000FB60F9211242F933F934F935F936F9301
:100AF0007F938F939F93AF93BF93EF93FF938091D7
:100B0000B900887F803609F49CC068F5883209F402
:100B10005BC090F4803109F454C038F4882309F4A0
:100B2000F6C0883009F44DC0F6C0883109F44CC0D5
:100B3000803209F45DC0EFC0803409F468C048F425
:100B4000803309F455C0883309F0E5C080931C0256
:100B5000D8C0803509F44FC0883509F45DC08834A9
:100B600009F0D9C0D6C0883909F4C7C0A8F48837BD
:100B700009F467C038F4883609F463C0803709F493
:100B800060C0C9C0883809F4B8C0803909F45FC0B2
:100B9000803809F0C0C05BC0803B09F486C038F4DF
:100BA000803A09F466C0883A09F47FC0B4C0803C3A
:100BB00009F4A7C0883C09F4A4C0883B09F48AC0A2
:100BC000AAC08091F90110C090911B0280911A0275
:100BD000981770F5E0911B0281E08E0F80931B0245
:100BE000F0E0E650FE4F80818093BB0085EC86C02C
:100BF00080931C028EC0E0911B0281E08E0F8093D7
:100C00001B028091BB00F0E0E650FE4F8083909184
:100C10001B0280911A026EC0E0911B0281E08E0FD0
:100C200080931B028091BB00F0E0E650FE4F808372
:100C300080911D0281116DC081E08093F80184EAEA
:100C400061C083E080931E021092EC01CFCF8091AF
:100C5000EC01803208F051C0E091EC0181E08E0F90
:100C60008093EC018091BB00F0E0E453FE4F808361
:100C7000BDCF85EC8093BC0010921E028091EC01E8
:100C8000803230F4E091EC01F0E0E453FE4F10824A
:100C90006091EC0170E0E091CA01F091CB018CEC25
:100CA00091E009951092EC0136C084E080931E0219
:100CB0001092C9011092C801E091C601F091C701DC
:100CC00009958091C801811105C081E08093C80118
:100CD0001092A601E091C90181E08E0F8093C901B5
:100CE000F0E0EA55FE4F80818093BB009091C901EE
:100CF0008091C801981708F479CF85E88093BC00EB
:100D00000AC085EC8093BC0010921E0204C01092B1
:100D10001C020E942302FF91EF91BF91AF919F911E
:100D20008F917F916F915F914F913F912F910F9094
:100D30000FBE0F901F901895E3E4F2E01382128229
:100D400088EE93E0A0E0B0E084839583A683B78328
:100D500024E031E03183208325EC30E0358724879F
:100D600024EC30E03787268720EC30E0318B208B75
:100D700021EC30E0338B228B22EC30E0358B248B5E
:100D800026EC30E0378B268B118E128E138E148E4C
:100D9000E0EEF2E01382128284839583A683B78308
:100DA00086E191E0918380830895789484B5826090
:100DB00084BD84B5816084BD85B5826085BD85B5FF
:100DC000816085BD80916E00816080936E0010927D
:100DD00081008091810082608093810080918100F8
:100DE0008160809381008091800081608093800089
:100DF0008091B10084608093B1008091B0008160E7
:100E00008093B00080917A00846080937A00809112
:100E10007A00826080937A0080917A00816080936A
:100E20007A0080917A00806880937A001092C100E5
:100E3000E0915302F091540282E08083E0914F02EE
:100E4000F09150021082E0915102F09152028FEC29
:100E5000808310925B02E0915702F091580286E085
:100E60008083E0915502F0915602808180618083F9
:100E7000E0915502F0915602808188608083E09174
:100E80005502F0915602808180688083E09155027E
:100E9000F091560280818F7D808380E68093EC0202
:100EA0001092EE011092ED011092400210923F025A
:100EB00010921E0281E080931D021092F80182E1DF
:100EC0000E94D40183E10E94D4018091B9008E7FF9
:100ED0008093B9008091B9008D7F8093B90088E438
:100EE0008093B80085E48093BC0082E00E94FA0100
:100EF00083E00E94FA017C0184E00E94FA01EC0187
:100F000085E00E94FA01EA94EF2809F045C00E94AA
:100F10009200EC01BC01990F880B990B0E94E70924
:100F20006B017C0120E030E040EA50E40E949C0A22
:100F300020E030E040E85AE30E949C0A2B013C018B
:100F400023E333E343E750E4C701B6010E949C0A60
:100F50000E94B6094B015C010E94E50920E030E0E7
:100F600040EA5AE30E949C0A6B017C012FE632E1C1
:100F700043E85AE30E94970A87FD08C088E290E0A0
:100F80000E944404C12CD12C760103C0C4010E94EC
:100F9000440483E391E047C0219709F055C00E94C3
:100FA0009200EC01BC01990F880B990B0E94E70994
:100FB0006B017C0120E030E040EA50E40E949C0A92
:100FC00020E030E040E85AE30E949C0A2B013C01FB
:100FD00020E030E040E450E4C701B6010E949C0AE2
:100FE0000E94B6094B015C010E94E50920E030E057
:100FF00040EA5AE30E949C0A6B017C012FE632E131
:1010000043E85AE30E943F0987FF08C088E290E066
:101010000E944404C12CD12C760103C0C4010E945B
:10102000440480E891E00E9431038EE391E00E9445
:101030003103CE010E9416048BE491E00E9431033B
:1010400043E0C301B20192C0019709F04FC00E9472
:101050009200EC016C01990FEE08FF08C701B60180
:101060000E94E70920E030E040EA50E40E949C0A38
:1010700020E030E040E85AE30E949C0A4B015C010A
:10108000C701B6010E94E50920E030E040EA5AE3DA
:101090000E949C0A6B017C012FE632E143E85AE38F
:1010A0000E943F0987FF0CC088E290E00E94440440
:1010B0008DECC82E8CECD82EED2C8DE3F82E03C0D1
:1010C000CE010E9444048BE891E00E9431038EE33C
:1010D00091E00E943103CE010E9416048BE491E05E
:1010E0000E94310343E0C501B40140C00E94920058
:1010F000EC01BC01990F880B990B0E94E7094B0189
:101100005C0120E030E040E850E40E949C0A0E942C
:10111000B6092B013C010E94E50920E030E040EADD
:101120005AE30E949C0A6B017C01C2010E944404A4
:1011300086E991E00E9431038EE391E00E94310341
:10114000CE010E9416048BE491E00E94310320E05E
:1011500030E040EA50E4C501B4010E949C0A20E05E
:1011600030E040E85AE30E949C0A43E00E943303C7
:101170008DE591E00E94310342E0C701B6010E9473
:1011800033038CE691E00E9431032DEC3CEC4CE4FF
:1011900054E4C701B6010E949C0A0E9407040E9401
:1011A000A101A3CE5058BB27AA270E94EA080C949D
:1011B0005D0A0E944F0A38F00E94560A20F039F466
:1011C0009F3F19F426F40C944C0A0EF4E095E7FBCB
:1011D0000C94460AE92F0E946E0A58F3BA17620768
:1011E00073078407950720F079F4A6F50C94900A0C
:1011F0000EF4E0950B2EBA2FA02D0B01B901900132
:101200000C01CA01A0011124FF27591B99F0593F75
:1012100050F4503E68F11A16F040A22F232F342FBD
:101220004427585FF3CF469537952795A795F0400B
:101230005395C9F77EF41F16BA0B620B730B840B20
:10124000BAF09150A1F0FF0FBB1F661F771F881FD8
:10125000C2F70EC0BA0F621F731F841F48F4879530
:1012600077956795B795F7959E3F08F0B0CF939522
:10127000880F08F09927EE0F9795879508950E949B
:10128000220A08F481E008950E9458090C945D0A2E
:101290000E94560A58F00E944F0A40F029F45F3F1E
:1012A00029F00C94460A51110C94910A0C944C0AA2
:1012B0000E946E0A68F39923B1F3552391F3951BAD
:1012C000550BBB27AA2762177307840738F09F5F67
:1012D0005F4F220F331F441FAA1FA9F335D00E2ED4
:1012E0003AF0E0E832D091505040E695001CCAF741
:1012F0002BD0FE2F29D0660F771F881FBB1F261704
:1013000037074807AB07B0E809F0BB0B802DBF01DA
:10131000FF2793585F4F3AF09E3F510578F00C94A9
:10132000460A0C94910A5F3FE4F3983ED4F3869505
:1013300077956795B795F7959F5FC9F7880F911DCA
:101340009695879597F90895E1E0660F771F881FB6
:10135000BB1F621773078407BA0720F0621B730B69
:10136000840BBA0BEE1F88F7E09508950E94760A69
:1013700088F09F5798F0B92F9927B751B0F0E1F056
:10138000660F771F881F991F1AF0BA95C9F714C006
:10139000B13091F00E94900AB1E008950C94900A47
:1013A000672F782F8827B85F39F0B93FCCF386953F
:1013B00077956795B395D9F73EF49095809570959C
:1013C00061957F4F8F4F9F4F0895E89409C097FB19
:1013D0003EF490958095709561957F4F8F4F9F4F0C
:1013E0009923A9F0F92F96E9BB279395F695879550
:1013F00077956795B795F111F8CFFAF4BB0F11F413
:1014000060FF1BC06F5F7F4F8F4F9F4F16C08823B9
:1014100011F096E911C0772321F09EE8872F762FEF
:1014200005C0662371F096E8862F70E060E02AF030
:101430009A95660F771F881FDAF7880F969587951C
:1014400097F90895990F0008550FAA0BE0E8FEEFF1
:1014500016161706E807F907C0F012161306E40778
:10146000F50798F0621B730B840B950B39F40A2671
:1014700061F0232B242B252B21F408950A2609F44F
:10148000A140A6958FEF811D811D089597F99F6753
:1014900080E870E060E008959FEF80EC08950024FC
:1014A0000A941616170618060906089500240A94C9
:1014B00012161306140605060895092E0394000C4F
:1014C00011F4882352F0BB0F40F4BF2B11F460FFDE
:1014D00004C06F5F7F4F8F4F9F4F089557FD905807
:1014E000440F551F59F05F3F71F04795880F97FBE8
:1014F000991F61F09F3F79F08795089512161306A2
:101500001406551FF2CF4695F1DF08C016161706D0
:101510001806991FF1CF8695710561050894089505
:10152000E894BB2766277727CB0197F908950E9497
:10153000220A08F48FEF08950E94AF0A0C945D0A06
:101540000E944F0A38F00E94560A20F0952311F0AD
:101550000C94460A0C944C0A11240C94910A0E9493
:101560006E0A70F3959FC1F3950F50E0551F629F6F
:10157000F001729FBB27F00DB11D639FAA27F00DEC
:10158000B11DAA1F649F6627B00DA11D661F829F13
:101590002227B00DA11D621F739FB00DA11D621FF8
:1015A000839FA00D611D221F749F3327A00D611D15
:1015B000231F849F600D211D822F762F6A2F1124F7
:1015C0009F5750409AF0F1F088234AF0EE0FFF1F2A
:1015D000BB1F661F771F881F91505040A9F79E3F81
:1015E000510580F00C94460A0C94910A5F3FE4F395
:1015F000983ED4F3869577956795B795F795E795D7
:101600009F5FC1F7FE2B880F911D9695879597F9DF
:1016100008950E94220A880B990B0895A1E21A2EC0
:10162000AA1BBB1BFD010DC0AA1FBB1FEE1FFF1F86
:10163000A217B307E407F50720F0A21BB30BE40BD6
:10164000F50B661F771F881F991F1A9469F760951D
:101650007095809590959B01AC01BD01CF010895D7
:10166000EE0FFF1F0590F491E02D099481E090E0CA
:0A167000F8940C943B0BF894FFCFA4
:10167A00000000003801A500D0007F010101DF0051
:10168A00F30000000000AB027B02DB02550273028A
:10169A00640256026E616E00696E66006F766600BD
:1016AA000D0A004E6F6465203D2053312000616EA3
:1016BA00616C6F6720494E203A200020616E616C90
:1016CA006F6720494E20566F6C743A200020616E75
:1016DA00616C6F67204F5554203A200020616E617B
:1016EA006C6F67204F555420566F6C74203A200057
:1016FA004E6F6465203D20533220004E6F64652092
:10170A003D20533320004E6F6465203D204E6F729A
:06171A006D616C2000006F
:00000001FF
