:100000000C945D000C9485000C9485000C94850084
:100010000C9485000C9485000C9485000C9485004C
:100020000C9485000C9485000C9485000C9485003C
:100030000C9485000C9485000C9485000C9485002C
:100040000C94CC040C9485000C943C050C9416057F
:100050000C9485000C9485000C9485000C9485000C
:100060000C946E050C94850000000000230026000F
:10007000290000000000250028002B0004040404CF
:100080000404040402020202020203030303030342
:10009000010204081020408001020408102001021F
:1000A00004081020000000080002010000030407FB
:1000B00000000000000000009C0611241FBECFEFCE
:1000C000D8E0DEBFCDBF11E0A0E0B1E0E2EFF5E1A6
:1000D00002C005900D92A637B107D9F722E0A6E736
:1000E000B1E001C01D92AD3BB207E1F710E0CDE5F4
:1000F000D0E004C02197FE010E94EC0ACC35D10764
:10010000C9F70E94D5060C94F70A0C940000E09100
:100110001302F09114020190F081E02D682F83E129
:1001200092E0099480E480937C0080917A0080645E
:1001300080937A0080917A0086FDFCCF80917800D0
:100140002091790090E0922B0895CF92DF92EF9268
:10015000FF920F931F93CF93DF936C017A018B0172
:10016000C0E0D0E0CE15DF0589F0D8016D918D019A
:10017000D601ED91FC910190F081E02DC601099529
:10018000892B11F47E0102C02196ECCFC701DF91CB
:10019000CF911F910F91FF90EF90DF90CF90089536
:1001A000FC01538D448D252F30E0842F90E0821B7D
:1001B000930B541710F0CF96089501970895FC0102
:1001C000918D828D981761F0828DDF01A80FB11D8E
:1001D0005D968C91928D9F5F9F73928F90E00895B2
:1001E0008FEF9FEF0895FC01918D828D981731F06C
:1001F000828DE80FF11D858D90E008958FEF9FEFC0
:100200000895FC01918D228D892F90E0805C9F4F95
:10021000821B91098F739927089583E192E00E94D0
:10022000010121E0892B09F420E0822F0895FC01CF
:10023000848DDF01A80FB11DA35ABF4F2C91848D6F
:1002400090E001968F739927848FA689B7892C93A4
:10025000A089B1898C9180648C93938D848D98133F
:1002600006C00288F389E02D80818F7D8083089508
:10027000EF92FF920F931F93CF93DF93EC0181E0F6
:10028000888F9B8D8C8D981305C0E889F9898081B2
:1002900085FD24C0F62E0B8D10E00F5F1F4F0F73EE
:1002A0001127E02E8C8DE8120CC00FB607FCFACF98
:1002B000E889F989808185FFF5CFCE010E94170179
:1002C000F1CF8B8DFE01E80FF11DE35AFF4FF08255
:1002D0000B8FEA89FB898081806207C0EE89FF89E4
:1002E0006083E889F98980818064808381E090E07F
:1002F000DF91CF911F910F91FF90EF900895CF93D1
:10030000DF93EC01888D8823C9F0EA89FB8980811D
:1003100085FD05C0A889B9898C9186FD0FC00FB6EF
:1003200007FCF5CF808185FFF2CFA889B9898C9130
:1003300085FFEDCFCE010E941701E7CFDF91CF916E
:10034000089580E090E0892B29F00E940D01811131
:100350000C9400000895833081F028F4813099F0E6
:100360008230A1F008958730A9F08830B9F0843048
:10037000D1F4809180008F7D03C0809180008F77C1
:1003800080938000089584B58F7702C084B58F7DF7
:1003900084BD08958091B0008F7703C08091B00034
:1003A0008F7D8093B0000895CF93DF93282F30E0A6
:1003B000F901EC55FF4F8491F901E057FF4FD491BB
:1003C000F901E458FF4FC491CC2389F081110E94B8
:1003D000AB01EC2FF0E0EE0FFF1FEE58FF4FA591A1
:1003E000B4918FB7F894EC91ED2BEC938FBFDF9124
:1003F000CF910895CF93DF93282F30E0F901EC558A
:10040000FF4F8491F901E057FF4FD491F901E4586F
:10041000FF4FC491CC2391F081110E94AB01EC2FCE
:10042000F0E0EE0FFF1FE859FF4FA591B491EC915A
:10043000ED2381E090E021F480E002C080E090E0D4
:10044000DF91CF91089585ED8093BC008091BC0031
:1004500084FDFCCF1092EE01089540919801262F63
:1004600030E0240F311D21323105DCF42091EE0102
:100470002430C9F4FC0180E090E0861758F43091F4
:1004800098012191DC01AA58BE4FA30FB11D2C93F6
:100490000196F3CF80919801680F6093980180E0F6
:1004A000089581E0089582E00895089581E090E044
:1004B0003091BE012091BD01321710F480E090E030
:1004C00091958195910908958091BE019091BD010A
:1004D000891730F48F5F8093BE0180E090E008952B
:1004E0008FEF9FEF08958091BD0190E02091BE01B4
:1004F000821B91090895CF92DF92EF92FF920F93A2
:100500001F93CF93DF937C01262F972F8A01809131
:100510001202882391F0C62FD72F6E01C40ED51E6C
:10052000CC15DD0571F06991D701ED91FC91019039
:10053000F081E02DC7010995F3CF642F822F0E942F
:100540002D02C801DF91CF911F910F91FF90EF9085
:10055000DF90CF900895CF93DF931F92CDB7DEB792
:100560006983209112022223D1F020910F022032C0
:1005700040F021E030E0FC013383228380E090E012
:1005800015C080911002E82FF0E0E151FE4F9981F3
:1005900090838F5F8093100280930F0205C061E00B
:1005A000CE0101960E942D0281E090E00F90DF9134
:1005B000CF910895089580E090E00895009769F044
:1005C000FC0101900020E9F73197AF01481B590B5E
:1005D000BC0183E192E00C94A50080E090E00895D6
:1005E0008F929F92AF92BF920F931F93CF93DF93FF
:1005F000CDB7DEB7A1970FB6F894DEBF0FBECDBF63
:1006000019A2423008F44AE08E010F5D1F4F842E7C
:10061000912CA12CB12CA50194010E94CA0AE62FAD
:10062000B901CA0101501109EA3014F4E05D01C0BA
:10063000E95CD801EC93232B242B252B61F7C8010F
:100640000E94DE02A1960FB6F894DEBF0FBECDBFAA
:10065000DF91CF911F910F91BF90AF909F908F909E
:1006600008950C94DE024F925F926F927F928F9268
:100670009F92AF92BF92CF92DF92EF92FF926B0167
:100680007C01B42E9B01AC010E94C50A882319F09D
:1006900084E291E027C026013701E89477F82FEF34
:1006A0003FEF4FE75FE7C301B2010E94C50A811126
:1006B0000DC02FEF3FEF4FE75FE7C301B2010E948C
:1006C000FB0818161CF488E291E00CC02FEF3FEFF6
:1006D0004FE75FE4C701B6010E94530A181684F47D
:1006E0008CE291E0FF90EF90DF90CF90BF90AF90C1
:1006F0009F908F907F906F905F904F900C94DE0250
:100700002FEF3FEF4FE75FECC701B6010E94FB08F8
:1007100087FDE6CF20E030E0A901C701B6010E94C5
:10072000FB0887FF09C08DE20E9487004C01F7FAA1
:10073000F094F7F8F09402C0812C912CA12C60E089
:1007400070E080E09FE3AB1441F020E030E040E255
:1007500051E40E940009A394F6CF9B01AC01C701AC
:10076000B6010E948F082B013C010E9472096B01A7
:100770007C010E94A1099B01AC01C301B2010E944E
:100780008E082B013C014AE0C701B6010E94F0022D
:100790007C01E80CF91CBB2029F08EE20E94870046
:1007A000E80EF91EDB2CDD2021F120E030E040E2F4
:1007B00051E4C301B2010E94580A2B013C010E947E
:1007C00072094B01A12CB12C4AE0C501B4010E9471
:1007D000F002E80EF91EC501B4010E94A1099B01B7
:1007E000AC01C301B2010E948E082B013C01DA94D6
:1007F000DACFC701FF90EF90DF90CF90BF90AF901E
:100800009F908F907F906F905F904F900895CF93BF
:10081000DF9342E00E943303EC0180E391E00E9409
:10082000DE028C0F9D1FDF91CF910895CF92DF9252
:10083000EF92FF92CF93DF936C01990FEE08FF08C0
:10084000F7FE17C08DE20E948700EC01662777272C
:10085000CB016C197D098E099F094AE00E94F002C4
:100860008C0F9D1FDF91CF91FF90EF90DF90CF9085
:1008700008954AE0C701B601DF91CF91FF90EF9054
:10088000DF90CF900C94F0020F931F93CF93DF93E0
:100890008C01D091B8008CE08093B800C091BC026C
:1008A00081E080931202C093110210921002109204
:1008B0000F0260E480EB92E00E94AB02B80184E09A
:1008C000769567958A95E1F780EB92E00E94AB02FE
:1008D000B80194E0660F771F9A95E1F780EB92E0FC
:1008E0000E94AB0280910F02813208F046C09091C5
:1008F000EE019111FCCF92E09093EE0191E0909384
:10090000ED019FEF9093EC011092EB018093EA01CF
:10091000AFEEB1E02AEC31E0F9019E2F921B98175F
:1009200018F49D919193F9CF1092C9018091C9015A
:10093000CC0FC82BC093C9018091C801813061F4EC
:100940001092C8018091C9018093BB008091BC00C6
:1009500083FDF8CF85EC01C085EE8093BC008091CB
:10096000EE018230E1F38091EC018F3F31F0809114
:10097000EC01803211F08091EC0110921002109283
:100980000F0210921202D093B800DF91CF911F9105
:100990000F9108950E94F20A1F920F920FB60F92C4
:1009A00011242F933F938F939F93AF93BF93809185
:1009B000C4019091C501A091C601B091C7013091C9
:1009C000C30123E0230F2D3720F40196A11DB11D93
:1009D00005C026E8230F0296A11DB11D2093C30177
:1009E0008093C4019093C501A093C601B093C70141
:1009F0008091BF019091C001A091C101B091C2014D
:100A00000196A11DB11D8093BF019093C001A093D9
:100A1000C101B093C201BF91AF919F918F913F915E
:100A20002F910F900FBE0F901F9018951F920F924D
:100A30000FB60F9211242F933F934F935F936F93B1
:100A40007F938F939F93AF93BF93EF93FF9383E134
:100A500092E00E941701FF91EF91BF91AF919F919A
:100A60008F917F916F915F914F913F912F910F9057
:100A70000FBE0F901F9018951F920F920FB60F92F6
:100A800011242F938F939F93EF93FF93E091230271
:100A9000F09124028081E0912902F0912A0282FDE6
:100AA00012C0908180912C028F5F8F7320912D0254
:100AB000821751F0E0912C02F0E0ED5EFD4F958F32
:100AC00080932C0201C08081FF91EF919F918F91C3
:100AD0002F910F900FBE0F901F9018951F920F929D
:100AE0000FB60F9211242F933F934F935F936F9301
:100AF0007F938F939F93AF93BF93EF93FF938091D7
:100B0000B900887F803609F49CC068F5883209F402
:100B10005BC090F4803109F454C038F4882309F4A0
:100B2000F6C0883009F44DC0F6C0883109F44CC0D5
:100B3000803209F45DC0EFC0803409F468C048F425
:100B4000803309F455C0883309F0E5C08093EC0187
:100B5000D8C0803509F44FC0883509F45DC08834A9
:100B600009F0D9C0D6C0883909F4C7C0A8F48837BD
:100B700009F467C038F4883609F463C0803709F493
:100B800060C0C9C0883809F4B8C0803909F45FC0B2
:100B9000803809F0C0C05BC0803B09F486C038F4DF
:100BA000803A09F466C0883A09F47FC0B4C0803C3A
:100BB00009F4A7C0883C09F4A4C0883B09F48AC0A2
:100BC000AAC08091C90110C09091EB018091EA0107
:100BD000981770F5E091EB0181E08E0F8093EB01A7
:100BE000F0E0E653FE4F80818093BB0085EC86C029
:100BF0008093EC018EC0E091EB0181E08E0F809339
:100C0000EB018091BB00F0E0E653FE4F80839091B2
:100C1000EB018091EA016EC0E091EB0181E08E0F63
:100C20008093EB018091BB00F0E0E653FE4F8083A0
:100C30008091ED0181116DC081E08093C80184EA4B
:100C400061C083E08093EE011092BC01CFCF809110
:100C5000BC01803208F051C0E091BC0181E08E0FF0
:100C60008093BC018091BB00F0E0E456FE4F80838E
:100C7000BDCF85EC8093BC001092EE018091BC0149
:100C8000803230F4E091BC01F0E0E456FE4F108277
:100C90006091BC0170E0E0919A01F0919B018CE9B8
:100CA00091E009951092BC0136C084E08093EE017A
:100CB0001092990110929801E0919601F09197019C
:100CC000099580919801811105C081E08093980178
:100CD00010927601E091990181E08E0F8093990145
:100CE000F0E0EA58FE4F80818093BB00909199011B
:100CF00080919801981708F479CF85E88093BC001B
:100D00000AC085EC8093BC001092EE0104C01092E2
:100D1000EC010E942302FF91EF91BF91AF919F914F
:100D20008F917F916F915F914F913F912F910F9094
:100D30000FBE0F901F901895E3E1F2E0138212822C
:100D400088EE93E0A0E0B0E084839583A683B78328
:100D500024E031E03183208325EC30E0358724879F
:100D600024EC30E03787268720EC30E0318B208B75
:100D700021EC30E0338B228B22EC30E0358B248B5E
:100D800026EC30E0378B268B118E128E138E148E4C
:100D9000E0EBF2E01382128284839583A683B7830B
:100DA00086E191E0918380830895789484B5826090
:100DB00084BD84B5816084BD85B5826085BD85B5FF
:100DC000816085BD80916E00816080936E0010927D
:100DD00081008091810082608093810080918100F8
:100DE0008160809381008091800081608093800089
:100DF0008091B10084608093B1008091B0008160E7
:100E00008093B00080917A00846080937A00809112
:100E10007A00826080937A0080917A00816080936A
:100E20007A0080917A00806880937A001092C100E5
:100E3000E0912302F091240282E08083E0911F027E
:100E4000F09120021082E0912102F09122028FECB9
:100E5000808310922B02E0912702F091280286E015
:100E60008083E0912502F091260280818061808359
:100E7000E0912502F0912602808188608083E091D4
:100E80002502F0912602808180688083E09125020E
:100E9000F091260280818F7D808380E68093BC0262
:100EA0001092BE011092BD011092100210920F021A
:100EB0001092EE0181E08093ED011092C80182E171
:100EC0000E94D40183E10E94D4018091B9008E7FF9
:100ED0008093B9008091B9008D7F8093B90088E438
:100EE0008093B80085E48093BC0082E00E94FA0100
:100EF00083E00E94FA017C0184E00E94FA01EC0187
:100F000085E00E94FA01EA94EF28F1F40E94920031
:100F1000EC01BC01990F880B990B0E94A3096B018E
:100F20007C0120E030E040EA50E40E94580A20E0D2
:100F300030E040E85AE30E94580A2B013C0123E3C9
:100F400033E343E350E420C0219709F040C00E94FE
:100F50009200EC01BC01990F880B990B0E94A30928
:100F60006B017C0120E030E040EA50E40E94580A26
:100F700020E030E040E85AE30E94580A2B013C018F
:100F80002DEC3CEC4CEC5FE3C701B6010E94580A23
:100F90000E9472094B015C010E94A10920E030E02F
:100FA00040EA5AE30E94580A6B017C01C4010E9486
:100FB00044042DEC3CEC4CEC5DE3C701B6010E940F
:100FC000FB0818160CF440C080E090E03EC001978A
:100FD00009F04CC00E949200EC01BC01990F880BF3
:100FE000990B0E94A3096B017C0120E030E040EAEC
:100FF00050E40E94580A20E030E040E85AE30E94A2
:10100000580A2B013C012AE939E949E95FE3C701A4
:10101000B6010E94580A0E9472094B015C010E94AD
:10102000A10920E030E040EA5AE30E94580A6B012F
:101030007C012DEC3CEC4CEC5DE30E94FB081816A7
:101040001CF089E991E001C0C4010E94440483E3DB
:1010500091E00E943103CE010E94160480E491E0E9
:101060000E94310343E0C301B2013CC00E949200E0
:10107000EC01BC01990F880B990B0E94A3094B014D
:101080005C0120E030E040E850E40E94580A0E94F1
:1010900072092B013C010E94A10920E030E040EAE6
:1010A0005AE30E94580A6B017C01C2010E94440469
:1010B00083E391E00E943103CE010E94160480E494
:1010C00091E00E94310320E030E040EA50E4C501A5
:1010D000B4010E94580A20E030E040E85AE30E9440
:1010E000580A43E00E94330382E591E00E943103F5
:1010F00042E0C701B6010E94330381E691E00E94FD
:1011000031032DEC3CEC4CE454E4C701B6010E94E1
:10111000580A0E9407040E94A101E7CE5058BB273D
:10112000AA270E94A6080C94190A0E940B0A38F0FC
:101130000E94120A20F039F49F3F19F426F40C940F
:10114000080A0EF4E095E7FB0C94020AE92F0E94CE
:101150002A0A58F3BA17620773078407950720F025
:1011600079F4A6F50C944C0A0EF4E0950B2EBA2FE8
:10117000A02D0B01B90190010C01CA01A00111249D
:10118000FF27591B99F0593F50F4503E68F11A1649
:10119000F040A22F232F342F4427585FF3CF4695DA
:1011A00037952795A795F0405395C9F77EF41F16FC
:1011B000BA0B620B730B840BBAF09150A1F0FF0FC6
:1011C000BB1F661F771F881FC2F70EC0BA0F621FB2
:1011D000731F841F48F4879577956795B795F795A2
:1011E0009E3F08F0B0CF9395880F08F09927EE0F37
:1011F0009795879508950E94DE0908F481E0089587
:101200000E9414090C94190A0E94120A58F00E94B4
:101210000B0A40F029F45F3F29F00C94020A5111A7
:101220000C944D0A0C94080A0E942A0A68F3992328
:10123000B1F3552391F3951B550BBB27AA276217D2
:101240007307840738F09F5F5F4F220F331F441FDF
:10125000AA1FA9F335D00E2E3AF0E0E832D0915013
:101260005040E695001CCAF72BD0FE2F29D0660F00
:10127000771F881FBB1F261737074807AB07B0E843
:1012800009F0BB0B802DBF01FF2793585F4F3AF049
:101290009E3F510578F00C94020A0C944D0A5F3F72
:1012A000E4F3983ED4F3869577956795B795F795CF
:1012B0009F5FC9F7880F911D9695879597F90895B7
:1012C000E1E0660F771F881FBB1F62177307840753
:1012D000BA0720F0621B730B840BBA0BEE1F88F762
:1012E000E09508950E94320A88F09F5798F0B92F30
:1012F0009927B751B0F0E1F0660F771F881F991F4B
:101300001AF0BA95C9F714C0B13091F00E944C0A96
:10131000B1E008950C944C0A672F782F8827B85FA6
:1013200039F0B93FCCF3869577956795B395D9F7A2
:101330003EF490958095709561957F4F8F4F9F4FAC
:101340000895E89409C097FB3EF4909580957095B8
:1013500061957F4F8F4F9F4F9923A9F0F92F96E901
:10136000BB279395F695879577956795B795F11176
:10137000F8CFFAF4BB0F11F460FF1BC06F5F7F4F13
:101380008F4F9F4F16C0882311F096E911C0772325
:1013900021F09EE8872F762F05C0662371F096E82E
:1013A000862F70E060E02AF09A95660F771F881FFD
:1013B000DAF7880F9695879597F90895990F0008A1
:1013C000550FAA0BE0E8FEEF16161706E807F90717
:1013D000C0F012161306E407F50798F0621B730BB2
:1013E000840B950B39F40A2661F0232B242B252B33
:1013F00021F408950A2609F4A140A6958FEF811DD6
:10140000811D089597F99F6780E870E060E0089576
:101410009FEF80EC089500240A941616170618060C
:101420000906089500240A941216130614060506E8
:101430000895092E0394000C11F4882352F0BB0F79
:1014400040F4BF2B11F460FF04C06F5F7F4F8F4FDC
:101450009F4F089557FD9058440F551F59F05F3F17
:1014600071F04795880F97FB991F61F09F3F79F0C6
:1014700087950895121613061406551FF2CF469548
:10148000F1DF08C0161617061806991FF1CF8695CA
:101490007105610508940895E894BB2766277727AE
:1014A000CB0197F908950E94DE0908F48FEF0895A3
:1014B0000E946B0A0C94190A0E940B0A38F00E94D1
:1014C000120A20F0952311F00C94020A0C94080AD9
:1014D00011240C944D0A0E942A0A70F3959FC1F3BF
:1014E000950F50E0551F629FF001729FBB27F00DD2
:1014F000B11D639FAA27F00DB11DAA1F649F662727
:10150000B00DA11D661F829F2227B00DA11D621F75
:10151000739FB00DA11D621F839FA00D611D221F2F
:10152000749F3327A00D611D231F849F600D211D13
:10153000822F762F6A2F11249F5750409AF0F1F096
:1015400088234AF0EE0FFF1FBB1F661F771F881FFF
:1015500091505040A9F79E3F510580F00C94020A2B
:101560000C944D0A5F3FE4F3983ED4F3869577954B
:101570006795B795F795E7959F5FC1F7FE2B880FA5
:10158000911D9695879597F908950E94DE09880B1D
:10159000990B0895A1E21A2EAA1BBB1BFD010DC0D9
:1015A000AA1FBB1FEE1FFF1FA217B307E407F50713
:1015B00020F0A21BB30BE40BF50B661F771F881FEF
:1015C000991F1A9469F760957095809590959B0185
:1015D000AC01BD01CF010895EE0FFF1F0590F491FE
:1015E000E02D099481E090E0F8940C94F70AF894C7
:0215F000FFCF2B
:1015F200000000003801A500D0007F010101DF00DA
:10160200F30000000000AB027B02DB025502730212
:10161200640256026E616E00696E66006F76660045
:101622000D0A00616E616C6F6720494E203A2000FE
:1016320020616E616C6F6720494E20566F6C743A60
:10164200200020616E616C6F67204F5554203A2054
:101652000020616E616C6F67204F555420566F6C8D
:0616620074203A20000094
:00000001FF
